{
  "contractName": "RegistrarRole",
  "abi": [
    {
      "inputs": [],
      "payable": false,
      "stateMutability": "nonpayable",
      "type": "constructor"
    },
    {
      "constant": false,
      "inputs": [
        {
          "name": "registrar",
          "type": "address"
        }
      ],
      "name": "addRegistrar",
      "outputs": [],
      "payable": false,
      "stateMutability": "nonpayable",
      "type": "function"
    }
  ],
  "bytecode": "0x608060405234801561001057600080fd5b5060016000803373ffffffffffffffffffffffffffffffffffffffff1673ffffffffffffffffffffffffffffffffffffffff16815260200190815260200160002060006101000a81548160ff0219169083151502179055506101ef806100776000396000f3fe608060405260043610610041576000357c0100000000000000000000000000000000000000000000000000000000900463ffffffff168063af92a69314610046575b600080fd5b34801561005257600080fd5b506100956004803603602081101561006957600080fd5b81019080803573ffffffffffffffffffffffffffffffffffffffff169060200190929190505050610097565b005b6100a03361016e565b1515610114576040517f08c379a00000000000000000000000000000000000000000000000000000000081526004018080602001828103825260118152602001807f556e6b6e6f776e2072656769737472617200000000000000000000000000000081525060200191505060405180910390fd5b60016000808373ffffffffffffffffffffffffffffffffffffffff1673ffffffffffffffffffffffffffffffffffffffff16815260200190815260200160002060006101000a81548160ff02191690831515021790555050565b60008060008373ffffffffffffffffffffffffffffffffffffffff1673ffffffffffffffffffffffffffffffffffffffff16815260200190815260200160002060009054906101000a900460ff16905091905056fea165627a7a72305820740ea8485acb092fda6982795bea92e993d06499a29578fe5010757ac196d0410029",
  "source": "pragma solidity ^0.5.0;\n\ncontract RegistrarRole {\n\n    mapping (address => bool) private registrars;\n\n    modifier onlyRegistrars() {\n        require(isRegistrar(msg.sender), \"Unknown registrar\");\n        _;\n    }\n   \n    constructor() public {\n        registrars[msg.sender] = true;\n    }\n\t\n    function addRegistrar(address registrar) public onlyRegistrars {\n        registrars[registrar] = true;\n    }\n\n    function isRegistrar(address registrar) private view returns (bool) {\n        return registrars[registrar];\n    }\n} ",
  "sourcePath": "/Users/osmansonmez/Ethereum/postdatedCheck-Manager/contracts/RegistrarRole.sol",
  "compiler": {
    "name": "solc",
    "version": "0.5.0+commit.1d4f565a.Emscripten.clang"
  },
  "schemaVersion": "3.0.2",
  "updatedAt": "2019-03-13T12:38:02.862Z",
  "devdoc": {
    "methods": {}
  },
  "userdoc": {
    "methods": {}
  }
}