{
  "contractName": "TransactionPermissionManager",
  "abi": [
    {
      "constant": false,
      "inputs": [
        {
          "name": "registrar",
          "type": "address"
        }
      ],
      "name": "addRegistrar",
      "outputs": [],
      "payable": false,
      "stateMutability": "nonpayable",
      "type": "function"
    },
    {
      "anonymous": false,
      "inputs": [
        {
          "indexed": true,
          "name": "code",
          "type": "bytes32"
        },
        {
          "indexed": false,
          "name": "registrar",
          "type": "address"
        }
      ],
      "name": "CodeRegistered",
      "type": "event"
    },
    {
      "anonymous": false,
      "inputs": [
        {
          "indexed": true,
          "name": "owner",
          "type": "address"
        },
        {
          "indexed": true,
          "name": "code",
          "type": "bytes32"
        }
      ],
      "name": "AddressRegistered",
      "type": "event"
    },
    {
      "constant": false,
      "inputs": [
        {
          "name": "code",
          "type": "bytes32"
        },
        {
          "name": "permission",
          "type": "uint32"
        }
      ],
      "name": "registerCode",
      "outputs": [],
      "payable": false,
      "stateMutability": "nonpayable",
      "type": "function"
    },
    {
      "constant": false,
      "inputs": [
        {
          "name": "code",
          "type": "bytes32"
        }
      ],
      "name": "registerAddress",
      "outputs": [],
      "payable": false,
      "stateMutability": "nonpayable",
      "type": "function"
    },
    {
      "constant": true,
      "inputs": [
        {
          "name": "addr",
          "type": "address"
        }
      ],
      "name": "allowedTxTypes",
      "outputs": [
        {
          "name": "",
          "type": "uint32"
        }
      ],
      "payable": false,
      "stateMutability": "view",
      "type": "function"
    }
  ],
  "bytecode": "0x608060405260016000803373ffffffffffffffffffffffffffffffffffffffff1673ffffffffffffffffffffffffffffffffffffffff16815260200190815260200160002060006101000a81548160ff0219169083151502179055506108348061006a6000396000f3fe608060405260043610610062576000357c0100000000000000000000000000000000000000000000000000000000900463ffffffff1680631fb5117314610067578063af92a693146100b2578063b39e38a614610103578063e17512211461013e575b600080fd5b34801561007357600080fd5b506100b06004803603604081101561008a57600080fd5b8101908080359060200190929190803563ffffffff1690602001909291905050506101af565b005b3480156100be57600080fd5b50610101600480360360208110156100d557600080fd5b81019080803573ffffffffffffffffffffffffffffffffffffffff1690602001909291905050506103f9565b005b34801561010f57600080fd5b5061013c6004803603602081101561012657600080fd5b81019080803590602001909291905050506104d0565b005b34801561014a57600080fd5b5061018d6004803603602081101561016157600080fd5b81019080803573ffffffffffffffffffffffffffffffffffffffff1690602001909291905050506106f0565b604051808263ffffffff1663ffffffff16815260200191505060405180910390f35b6101b8336107b3565b151561022c576040517f08c379a00000000000000000000000000000000000000000000000000000000081526004018080602001828103825260118152602001807f556e6b6e6f776e2072656769737472617200000000000000000000000000000081525060200191505060405180910390fd5b600073ffffffffffffffffffffffffffffffffffffffff166001600084815260200190815260200160002060000160009054906101000a900473ffffffffffffffffffffffffffffffffffffffff1673ffffffffffffffffffffffffffffffffffffffff1614151515610307576040517f08c379a00000000000000000000000000000000000000000000000000000000081526004018080602001828103825260178152602001807f436f646520616c7265616479207265676973746572656400000000000000000081525060200191505060405180910390fd5b336001600084815260200190815260200160002060000160006101000a81548173ffffffffffffffffffffffffffffffffffffffff021916908373ffffffffffffffffffffffffffffffffffffffff160217905550806001600084815260200190815260200160002060000160146101000a81548163ffffffff021916908363ffffffff160217905550817fb8c61350bf0e99e30abde245394b74ed535d7eb3d35779030fc6774665bd903533604051808273ffffffffffffffffffffffffffffffffffffffff1673ffffffffffffffffffffffffffffffffffffffff16815260200191505060405180910390a25050565b610402336107b3565b1515610476576040517f08c379a00000000000000000000000000000000000000000000000000000000081526004018080602001828103825260118152602001807f556e6b6e6f776e2072656769737472617200000000000000000000000000000081525060200191505060405180910390fd5b60016000808373ffffffffffffffffffffffffffffffffffffffff1673ffffffffffffffffffffffffffffffffffffffff16815260200190815260200160002060006101000a81548160ff02191690831515021790555050565b600073ffffffffffffffffffffffffffffffffffffffff166001600083815260200190815260200160002060000160009054906101000a900473ffffffffffffffffffffffffffffffffffffffff1673ffffffffffffffffffffffffffffffffffffffff161415156105aa576040517f08c379a00000000000000000000000000000000000000000000000000000000081526004018080602001828103825260138152602001807f436f6465206e6f7420726567697374657265640000000000000000000000000081525060200191505060405180910390fd5b6000600102600260003373ffffffffffffffffffffffffffffffffffffffff1673ffffffffffffffffffffffffffffffffffffffff1681526020019081526020016000205414151515610665576040517f08c379a000000000000000000000000000000000000000000000000000000000815260040180806020018281038252601a8152602001807f4164647265737320616c7265616479207265676973746572656400000000000081525060200191505060405180910390fd5b80600260003373ffffffffffffffffffffffffffffffffffffffff1673ffffffffffffffffffffffffffffffffffffffff16815260200190815260200160002081905550803373ffffffffffffffffffffffffffffffffffffffff167f3d211a3d0c4b62e63dc2198443cef60a87116440de0a3e871f0cc027072432ef60405160405180910390a350565b600080600102600260008473ffffffffffffffffffffffffffffffffffffffff1673ffffffffffffffffffffffffffffffffffffffff16815260200190815260200160002054141561074557600090506107ae565b60016000600260008573ffffffffffffffffffffffffffffffffffffffff1673ffffffffffffffffffffffffffffffffffffffff16815260200190815260200160002054815260200190815260200160002060000160149054906101000a900463ffffffff1690505b919050565b60008060008373ffffffffffffffffffffffffffffffffffffffff1673ffffffffffffffffffffffffffffffffffffffff16815260200190815260200160002060009054906101000a900460ff16905091905056fea165627a7a723058202e28912c914b0468a71b4d0e82e52834be5ceddc32c4a966b1c8d4fe710bd8ad0029",
  "source": "pragma solidity ^0.5.0;\n\nimport \"./RegistrarRole.sol\";\n\ncontract TransactionPermissionManager is RegistrarRole {\n\n    /// Allowed transaction types mask\n    uint32 constant None = 0;\n    uint32 constant All = 0xffffffff;\n    uint32 constant Basic = 0x01;\n    uint32 constant Call = 0x02;\n    uint32 constant Create = 0x04;\n    uint32 constant Private = 0x08;\n\n    struct Registry {\n        address Registrar;\n        uint32 Permission;  \n    }\n\n    event CodeRegistered(\n        bytes32 indexed code,\n        address registrar\n    );\n \n    event AddressRegistered(\n        address indexed owner,\n        bytes32 indexed code\n    );\n\n    mapping(bytes32 => Registry) private codes;\n    mapping(address => bytes32) private addresses;\n\n    function registerCode(bytes32 code, uint32 permission) public onlyRegistrars {\n        require(codes[code].Registrar != address(0), \"Code already registered\");\n        \n        codes[code].Registrar = msg.sender;\n        codes[code].Permission = permission;\n\n        emit CodeRegistered(code, msg.sender);\n    }\n\n    function registerAddress(bytes32 code) public {\n        require(codes[code].Registrar == address(0), \"Code not registered\");\n        require(addresses[msg.sender] != 0, \"Address already registered\");\n\n        addresses[msg.sender] = code;\n        \n        emit AddressRegistered(msg.sender, code);\n    }\n\n    function allowedTxTypes(address addr) public view returns (uint32) {\n        if (addresses[addr] == 0) return None;\n        return codes[addresses[addr]].Permission;\n    }\n}",
  "sourcePath": "/Users/osmansonmez/Ethereum/postdatedCheck-Manager/contracts/TransactionPermissionManager.sol",
  "compiler": {
    "name": "solc",
    "version": "0.5.0+commit.1d4f565a.Emscripten.clang"
  },
  "schemaVersion": "3.0.2",
  "updatedAt": "2019-02-27T10:26:10.139Z",
  "devdoc": {
    "methods": {}
  },
  "userdoc": {
    "methods": {}
  }
}