{
  "contractName": "Wallet",
  "abi": [
    {
      "inputs": [],
      "payable": false,
      "stateMutability": "nonpayable",
      "type": "constructor",
      "signature": "constructor"
    },
    {
      "anonymous": false,
      "inputs": [
        {
          "indexed": true,
          "name": "customerId",
          "type": "string"
        },
        {
          "indexed": true,
          "name": "addr",
          "type": "address"
        }
      ],
      "name": "LogCustomerAdded",
      "type": "event",
      "signature": "0x68e56fa75f873de3bef2686b87557a8762ba93ce47b4cb86c8af0e7f912deadd"
    },
    {
      "constant": false,
      "inputs": [
        {
          "name": "customerId",
          "type": "string"
        },
        {
          "name": "addr",
          "type": "address"
        }
      ],
      "name": "AddToWallet",
      "outputs": [],
      "payable": false,
      "stateMutability": "nonpayable",
      "type": "function",
      "signature": "0x865cf6eb"
    },
    {
      "constant": true,
      "inputs": [
        {
          "name": "customerId",
          "type": "string"
        }
      ],
      "name": "GetCustomerAddress",
      "outputs": [
        {
          "name": "addr",
          "type": "address"
        }
      ],
      "payable": false,
      "stateMutability": "view",
      "type": "function",
      "signature": "0xa1bf9198"
    }
  ],
  "bytecode": "0x608060405234801561001057600080fd5b50336000806101000a81548173ffffffffffffffffffffffffffffffffffffffff021916908373ffffffffffffffffffffffffffffffffffffffff160217905550610716806100606000396000f3fe60806040526004361061004c576000357c0100000000000000000000000000000000000000000000000000000000900463ffffffff168063865cf6eb14610051578063a1bf919814610139575b600080fd5b34801561005d57600080fd5b506101376004803603604081101561007457600080fd5b810190808035906020019064010000000081111561009157600080fd5b8201836020820111156100a357600080fd5b803590602001918460018302840111640100000000831117156100c557600080fd5b91908080601f016020809104026020016040519081016040528093929190818152602001838380828437600081840152601f19601f820116905080830192505050505050509192919290803573ffffffffffffffffffffffffffffffffffffffff169060200190929190505050610241565b005b34801561014557600080fd5b506101ff6004803603602081101561015c57600080fd5b810190808035906020019064010000000081111561017957600080fd5b82018360208201111561018b57600080fd5b803590602001918460018302840111640100000000831117156101ad57600080fd5b91908080601f016020809104026020016040519081016040528093929190818152602001838380828437600081840152601f19601f82011690508083019250505050505050919291929050505061058e565b604051808273ffffffffffffffffffffffffffffffffffffffff1673ffffffffffffffffffffffffffffffffffffffff16815260200191505060405180910390f35b3373ffffffffffffffffffffffffffffffffffffffff166000809054906101000a900473ffffffffffffffffffffffffffffffffffffffff1673ffffffffffffffffffffffffffffffffffffffff16141515610305576040517f08c379a000000000000000000000000000000000000000000000000000000000815260040180806020018281038252600e8152602001807f6e6f7420617574686f72697a656400000000000000000000000000000000000081525060200191505060405180910390fd5b60006001836040518082805190602001908083835b60208310151561033f578051825260208201915060208101905060208303925061031a565b6001836020036101000a038019825116818451168082178552505050505050905001915050908152602001604051809103902060009054906101000a900473ffffffffffffffffffffffffffffffffffffffff169050600073ffffffffffffffffffffffffffffffffffffffff168173ffffffffffffffffffffffffffffffffffffffff16141515610439576040517f08c379a00000000000000000000000000000000000000000000000000000000081526004018080602001828103825260178152602001807f437573746f6d657220686173204554482041647265737300000000000000000081525060200191505060405180910390fd5b816001846040518082805190602001908083835b602083101515610472578051825260208201915060208101905060208303925061044d565b6001836020036101000a038019825116818451168082178552505050505050905001915050908152602001604051809103902060006101000a81548173ffffffffffffffffffffffffffffffffffffffff021916908373ffffffffffffffffffffffffffffffffffffffff1602179055508173ffffffffffffffffffffffffffffffffffffffff16836040518082805190602001908083835b602083101515610530578051825260208201915060208101905060208303925061050b565b6001836020036101000a03801982511681845116808217855250505050505090500191505060405180910390207f68e56fa75f873de3bef2686b87557a8762ba93ce47b4cb86c8af0e7f912deadd60405160405180910390a3505050565b60003373ffffffffffffffffffffffffffffffffffffffff166000809054906101000a900473ffffffffffffffffffffffffffffffffffffffff1673ffffffffffffffffffffffffffffffffffffffff16141515610654576040517f08c379a000000000000000000000000000000000000000000000000000000000815260040180806020018281038252600e8152602001807f6e6f7420617574686f72697a656400000000000000000000000000000000000081525060200191505060405180910390fd5b6001826040518082805190602001908083835b60208310151561068c5780518252602082019150602081019050602083039250610667565b6001836020036101000a038019825116818451168082178552505050505050905001915050908152602001604051809103902060009054906101000a900473ffffffffffffffffffffffffffffffffffffffff16905080905091905056fea165627a7a723058202ead1bf048be47d0096832b71f36cf21af3da38c7bec7305cac28d68cb358bd10029",
  "source": "pragma solidity ^0.5.0;\n\ncontract Wallet\n{\n    address _sender;\n    constructor() public\n    {\n        _sender = msg.sender;\n    }\n    mapping(string=>address) private customers;\n    event LogCustomerAdded(string indexed customerId, address indexed addr);\n\n    function AddToWallet(string memory customerId, address addr) public\n    {\n        require(_sender==msg.sender,\"not authorized\");\n        address customerAddress = customers[customerId];\n        require(customerAddress==address(0),\"Customer has ETH Adress\");\n        customers[customerId] = addr;\n        emit LogCustomerAdded(customerId,addr);\n    }\n\n    function GetCustomerAddress(string memory customerId) public view returns(address addr)\n    {\n        require(_sender==msg.sender,\"not authorized\");\n        addr = customers[customerId];\n        return addr;\n    }\n}",
  "sourcePath": "/Users/osmansonmez/Ethereum/postdatedCheck-Manager/contracts/Wallet.sol",
  "compiler": {
    "name": "solc",
    "version": "0.5.0+commit.1d4f565a.Emscripten.clang"
  },
  "schemaVersion": "3.0.2",
  "updatedAt": "2019-03-13T12:38:50.607Z",
  "devdoc": {
    "methods": {}
  },
  "userdoc": {
    "methods": {}
  }
}